:020000040800F2
:1000000000000320210600084123000843230008C4
:10001000452300084723000849230008000000008A
:10002000000000000000000000000000F19B00083C
:100030004B23000800000000819C00080D9500087B
:1000400071060008710600087106000871060008B4
:1000500071060008710600087106000871060008A4
:100060007106000871060008710600087106000894
:100070007106000871060008710600087106000884
:100080007106000871060008710600087106000874
:100090007106000871060008710600087106000864
:1000A0007106000871060008710600087106000854
:1000B0007106000871060008710600087106000844
:1000C0007106000871060008710600087106000834
:1000D0007106000871060008710600087106000824
:1000E0007106000871060008710600087106000814
:1000F0007106000871060008710600087106000804
:1001000071060008710600087106000871060008F3
:1001100071060008710600084D23000871060008EA
:1001200071060008710600087106000871060008D3
:1001300071060008710600087106000871060008C3
:1001400071060008710600087106000871060008B3
:1001500071060008710600087106000871060008A3
:100160007106000871060008710600087106000893
:100170007106000871060008710600080000000002
:100180007106000871060008710600087106000873
:100190007106000871060008710600087106000863
:0C01A000592300087106000865230008C0
:1001B00010B5054C237833B9044B13B10448AFF3A1
:1001C00000800123237010BD6004002000000000A7
:1001D000185F020808B5034B1BB103490348AFF38E
:1001E000008008BD0000000064040020185F0208C1
:1001F00001F0FF01102A2BDB10F0070F08D010F8D8
:10020000013B013A8B422DD010F0070F42B3F6D1DB
:10021000F0B441EA012141EA014122F007047FF0F4
:1002200000070023F0E80256083C85EA010586EA4B
:10023000010685FA47F5A3FA87F586FA47F6A5FA87
:1002400087F68EB9EED1F0BC01F0FF0102F0070293
:1002500032B110F8013B013A83EA010313B1F8D13E
:100260000020704701387047002D06BF354603381F
:10027000073815F0010F07D1013015F4807F02BF58
:10028000013015F4C03F0130F0BC0138704700BFA9
:100290007BB972B90029BEBF00204FF0004106E0D3
:1002A00008BF00281CBF6FF000414FF0FF3000F086
:1002B000B5B9ADF1080C6DE904CE002909DB002BBE
:1002C0001ADB00F04DF8DDF804E0DDE9022304B0AC
:1002D0007047404261EB4101002B1BDB00F040F80E
:1002E000DDF804E0DDE9022304B0404261EB4101A6
:1002F000524263EB43037047524263EB430300F007
:100300002FF8DDF804E0DDE9022304B0404261EBA0
:1003100041017047524263EB430300F021F8DDF8DE
:1003200004E0DDE9022304B0524263EB430370476B
:1003300053B94AB9002908BF00281CBF4FF0FF314C
:100340004FF0FF3000F06AB9ADF1080C6DE904CE52
:1003500000F006F8DDF804E0DDE9022304B07047A0
:100360002DE9F047089D0C46002B4ED194468C4554
:100370008646B2FA82F262D94AB1C2F120039140B4
:1003800020FA03F30CFA02FC194300FA02FE4FEACA
:100390001C471FFA8CF6B1FBF7F44FEA1E4307FB2C
:1003A000141143EA014304FB06F199420AD91CEBFC
:1003B000030304F1FF3080F01281994240F20F8173
:1003C000023C6344591A1FFA8EF3B1FBF7F007FBA6
:1003D000101143EA014300FB06F69E420AD91CEBCA
:1003E000030300F1FF3180F0FC809E4240F2F9806F
:1003F000634402389B1B40EA044000211DB1D340F6
:100400000022C5E90032BDE8F0878B4205D90DB165
:10041000C5E9000100210846F5E7B3FA83F1002998
:1004200046D1A34202D39042C0F0F080861A64EB1A
:1004300003030120002DE6D0C5E90063E3E7002AAD
:1004400040F09080A1EB0C044FEA1C481FFA8CF797
:100450000121B4FBF8F64FEA1E4308FB164443EAB9
:10046000044307FB06F0984208D91CEB030306F18E
:10047000FF3402D2984200F2CD8026461C1A1FFAA1
:100480008EF3B4FBF8F008FB104443EA044300FB8E
:1004900007F79F4208D91CEB030300F1FF3402D297
:1004A0009F4200F2B0802046DB1B40EA0640A5E7F1
:1004B000C1F120068B4022FA06F71F4320FA06FC02
:1004C00004FA01F343EA0C03F44000FA01F8380C93
:1004D0004FEA1349B4FBF0FE1FFA87FC00FB1E44F1
:1004E00049EA04440EFB0CF9A14502FA01F20AD9CB
:1004F0003C190EF1FF3A80F08480A14540F28180E2
:10050000AEF1020E3C44A4EB09041FFA83F9B4FBDC
:10051000F0F300FB134449EA044403FB0CFCA4453C
:1005200007D93C1903F1FF3067D2A44565D9023BD6
:100530003C4443EA0E40A0FB0293A4EB0C049C4213
:10054000CE469C4651D34ED055B1B8EB0E0364EB6A
:100550000C0404FA06F6CB401E43CC40C5E9006407
:10056000002150E7C2F1200320FA03F10CFA02FC4B
:1005700024FA03F394400C434FEA1C4800FA02FEAD
:100580001FFA8CF7B3FBF8F008FB1031230C43EA99
:10059000014300FB07F1994208D91CEB030300F16A
:1005A000FF362CD299422AD9023863445B1AA4B28E
:1005B000B3FBF8F108FB113344EA034401FB07F3F2
:1005C000A34208D91CEB040401F1FF3613D2A34265
:1005D00011D902396444E41A41EA004139E704467A
:1005E000F0E6084606E7C845AED2B9EB020E63EB6B
:1005F000070C0138A8E73146EDE7034699E7304696
:10060000D4E7D6467FE7634402384DE706462346E3
:1006100008460FE7023E634430E700BF704700BF63
:10062000DFF834D0002103E00C4B5B584350043119
:100630000B480C4B42189A42F6D30B4A02E00023B7
:1006400042F8043B094B9A42F9D306F0BDFC24F072
:10065000F3FE01F0EDF8704700000320C0641508B8
:10066000000000204C02002060040020B47601202D
:10067000FEE7704708B500F0B9FDBDE8084000F09E
:100680003BBD00F0B5BD704710B50421044623F012
:10069000DDFC204610BD000038B50C4B0C4C18801A
:1006A0000C4B822019806368984740F611039842EA
:1006B0000AD1094D23682C60822098472B6882203C
:1006C000DB689847002038BD0120FCE78604002045
:1006D0003401002084040020880400204FF4A0711D
:1006E000F020FFF7D9BF0000F7B5374D2B6804465F
:1006F0001B6982209847208000284ED02B680DF17E
:1007000006025B6901A982209847304B1B78002BB9
:100710004BD0BDF8063040F6746293423FD9ADF835
:100720000620BDF80630D21A92B20A2A42D90B230B
:10073000B2FBF3F2264B1B889A4201D9013B9AB2D5
:10074000BDF8043040F6B8318B4235D8C3F571633B
:100750000E339BB20F21B3FBF1F31E4909888B4284
:1007600001D901398BB21C4E1C4D30682F68834271
:1007700081B28CBF591AC91AB8B2BA428CBF101ACA
:10078000801A89B280B201440529C8BF336033683A
:10079000C8BF2A6063802B68A38003B0F0BDB32B71
:1007A0009CBFB423ADF80630BBE7BDF80620A2F528
:1007B000B472B9E70022C3E7C3F56D6308339BB297
:1007C0000E2BC7D80023CEE7880400200C59002048
:1007D0008404002086040020800400207C04002083
:1007E00037B568460D461446FFF77EFFBDF800009A
:1007F00030B1BDF802302B60BDF804302360012019
:1008000003B030BD032821D8DFE800F0020B121935
:100810000F4B1A68B2FA82F2520904210D4806F011
:1008200069BE0B4B5A68B2FA82F252090821F5E709
:10083000074B9A68B2FA82F252091021EEE7044B94
:10084000DA68B2FA82F252092021E7E7704700BF66
:100850008C04002000100240032821D8DFE800F0BB
:10086000020B12190F4B1A68003A18BF012204211B
:100870000D4806F03FBE0B4B5A68003A18BF0122E4
:100880000821F5E7074B9A68003A18BF01221021AA
:10089000EEE7044BDA68003A18BF01222021E7E7AF
:1008A000704700BF8C0400200010024003280DD8C0
:1008B000DFE800F00206080A0421054806F01FBE22
:1008C0000821FAE71021F8E72021F6E7704700BF7A
:1008D0000010024008B5032811D8DFE800F0020A32
:1008E0000C0E0421074806F0FFFD431E58425841F4
:1008F00008BD0821F6E71021F4E72021F2E70020E7
:10090000F3E700BF0010024070B5084D0024012637
:10091000E0B2FFF7DFFF18B12B68012B18BF2E6084
:100920000134052C05F10405F2D170BD8C040020C2
:10093000012380F8781080F87930704770470020E4
:1009400070470000034B4164003918BF0121197042
:10095000704700BF73690120704700207047836BA8
:100960000BB10846184770474FF6FF707047406854
:1009700003689B6918477047704770477047704716
:1009800010B5044600F04AFD23680349D3F89030BF
:100990002046BDE810401847000000D008B50368A5
:1009A0000446D3F88430984723682046DB6F984785
:1009B00000F0ECF8236820465B6F9847292001F08F
:1009C000DFF900F0E3F8236820465B6F9847F8E70B
:1009D00010B504460BF006FF23682046D3F8BC3060
:1009E000BDE81040184700F0FBBC00F0FFBC00F071
:1009F00033BD00F0D1BC00F043BD00F04BBD00F0B2
:100A0000D5BC0BF01DB910B58421044623F01EFBA4
:100A1000204610BD10B590F8341090F878400C4B7B
:100A20008C421A7809D03AB90A4A0B4914880888C6
:100A300010800C8001221A7010BD002AFCD0054ADB
:100A400005491488088810800C800022F3E700BF55
:100A50006C690120686901206A69012070B50D4642
:100A6000194635B9094B0A4A0A4840F2FF2124F0D9
:100A700033FAC0E90F52084B003A18BF01221A702E
:100A80000368BDE87040D3F890301847885F0208CB
:100A9000C05F02080E6002087269012008B5094BA8
:100AA0001B888B4203D8084B1B88934205D9074B00
:100AB000074A0848A32124F00FFA074B1980074B77
:100AC0001A8008BD686901206A6901205360020824
:100AD000B66002080E6002086E690120706901208C
:100AE000034690F87A0018B1586803681B681847E5
:100AF00070470000012108B50022084608F093FD68
:100B00000A4B186028B90A4B0A4A28210A4824F0DF
:100B1000E3F900220421012008F024FE074B1860AD
:100B200018B9074B034A2C21F0E708BDA0040020A8
:100B3000E861020831620208606202089C04002039
:100B40009C620208024B4FF0FF31186808F0B5BDF7
:100B5000A0040020014B186808F0DBBDA0040020B1
:100B6000024B0021186808F0A8BD00BFA0040020B7
:100B7000FFF7F0BF03480449006800231A4608F055
:100B80002CBE00BF9C0400200400002013B5084CBC
:100B900000231A4601A9206808F050FE20684FF093
:100BA000FF33002201A908F049FE02B010BD00BFCA
:100BB0009C04002003685B6C1847012070470368A1
:100BC0009B6A1847FEE740F2EF307047054B036021
:100BD000054B4FF08062C3F88820BFF34F8FBFF3FF
:100BE0006F8F70472864020800E100E010B50446EA
:100BF0004FF45A61FFF7EAFF204623F027FA204618
:100C000010BD000082B0002301930E4B1A6B42F41A
:100C100000021A631A6B02F400020192019A1A6927
:100C200042F400021A611A6922F400021A61064BAA
:100C3000064A1A61064A5A61064B4FF080629A6072
:100C400002B0704700380240A45A0020A50E0008E8
:100C5000C50B000800E100E008B50A2809D8DFE864
:100C600000F006100E0808080810101010000220EE
:100C700008BD054B054A0648902124F02DF90020B7
:100C8000F6E70120F4E700BFDE620208F96202081D
:100C90004463020838B50C46887FFFF7DDFFA58A5C
:100CA000E28A164B2169586342EA05425A64628B14
:100CB000D963521B1A642568082D0ED19A611A61F6
:100CC0005862207F0E4A42EA0062DA61E2681A62E4
:100CD0000C4A5961D9601A6038BD0022D8611A6186
:100CE000E1680A0A480902F4784200F4FC60024311
:100CF000C1F3C4010A439A63034AECE700B002401F
:100D000009000100012302000123030008B50B289C
:100D10000BD8DFE800F00612100A0A0A0A080808D1
:100D20000808022008BD0520FCE7054B054A0648D7
:100D30006F2124F0D1F80020F4E70120F2E700BF92
:100D4000DE6202087E630208446302082DE9F04176
:100D500091F81D800C464046FFF7D8FFA77F054657
:100D60003846FFF7D3FF06463846FFF775FFA18ADE
:100D7000628B444B521A1A649A61228B521A1A617E
:100D8000E28A586342EA01425A6421696268D9637F
:100D9000DA602068802828D0227F0FD8202867D0EA
:100DA000402865D004281AD0364B45EA026545F440
:100DB0000035B845DD6161D0334A44E0B0F5807F4D
:100DC00004D0B0F5007FEFD1304800E0304840EA71
:100DD0000262DA61E2681A625E62596132E045EAF3
:100DE000026242F40032DA61F6E7A068021DDA62BC
:100DF000227F45EA026545F40035DD615E62596196
:100E0000017841B1012921D0224B234A23484FF4D4
:100E10008D7124F061F8DA69418822F47F4201394A
:100E200022F0100242EA0122DA610121154BDA694F
:100E300042F02002DA61DA699206FCD410229A604C
:100E40000029B9D0164A1A60BDE8F081B2F1FF015D
:100E5000DA69408822F47F4200F1FF3022F010026C
:100E600042EA002242F0100218BF0121DA61DDE7F8
:100E700045EA0262034B42F40032B4E742F2013227
:100E8000E1E700BF00B002400123010009000200B9
:100E90000A000200C8630208E26302084463020811
:100EA00001230200024B1B68586803685B691847FE
:100EB0007469012070B5044625460A4B0C300026A3
:100EC00060602672667245F8203B602229460BF06E
:100ED000DFFD04F55A63EE6024359D42FBD12046C8
:100EE00070BD00BF28640208034B1A68D207FCD407
:100EF00023229A60704700BF00B002407047000094
:100F000030B50F4C2568ED07FCD423250904A560F6
:100F100041F001010225FF2B65636164E0630AD0A3
:100F20000849656241EA0363E361074B226260613D
:100F3000E060236030BDE561039BA363034BF8E7EA
:100F400000B002400900010001000200010003009E
:100F500030B50E4C2568ED07FCD423251204A5609E
:100F600042F001020225FF2B65636264E063E160E9
:100F700008D01B0643F00213E361054B6562606114
:100F8000236030BD034BE3610123F9E700B0024069
:100F900001000200020002FF30B50B4C2568ED078E
:100FA000FCD4232512041B06A56043F4003302255C
:100FB00042F0010265636264E063E160E361034B58
:100FC00065626061236030BD00B002400100020034
:100FD000012070474020704700EB811008307047B7
:100FE00000EB8110083070470120704744F2EC207C
:100FF000704744F2EC2303FB01000830704744F2D1
:10100000EC2303FB010008307047012070471020DB
:10101000704700EB01100830704700EB01100830FA
:101020007047084601F008BC10B5034B0360044646
:101030000AF05BFB204610BDE064020810B50446D0
:10104000FFF7F2FF2046482123F000F8204610BDAC
:1010500010B5034B036004460AF047FB204610BD61
:10106000AC64020810B50446FFF7F2FF204644F2D4
:10107000F42122F0EBFF204610BD000010B5034B19
:10108000036004460AF031FB204610BD7864020874
:1010900010B50446FFF7F2FF2046182122F0D6FFD4
:1010A000204610BD10B5094B0360044600F586408C
:1010B0002030FFF7B9FF04F12C00FFF7C9FF04F15E
:1010C0001400FFF7DBFF204610BD00BF14650208C7
:1010D00008B50248FFF7E6FF08BD00BF7C130020FB
:1010E00010B50446FFF7DEFF204644F2C84122F067
:1010F000ADFF204610BD00002DE9F34101F0A6F937
:10110000054601F0A7F90024014623462846224659
:10111000009413F0E9FE274B274A1A60204604F09A
:101120007FFE264D264B274A27489A6013F044FE3F
:101130002B68BFF35B8FDB0736D4284622F088FF8D
:1011400090B3224C224F234B236007F14C0604F14D
:10115000140004F12C086060C4F80880E760266180
:101160000AF0C4FA1C4B636140460AF0BFFA1B4BFD
:10117000E36238460AF0BAFA04F5804303F55A7080
:10118000174AC3F8202304F0CFFE224607F1480196
:10119000304604F0BFFE304601F04EFB114823F00C
:1011A000B9FE284622F060FF0F4802B0BDE8F041CA
:1011B000FFF7E6BBD869012028050020781300203E
:1011C000480500202C050020080000207C1300208A
:1011D0009C5600201465020878640208AC6402087A
:1011E000E0640208D1100008A40400207047000049
:1011F0000148FFF7D3BB00BFA404002070B5264E02
:10120000264C274D274B23603046FFF753FE2846D8
:1012100018F070FF244811F0C1FE244B2448DC6014
:1012200000224FF48071C3E9121222491A86C3E9E1
:101230001A12214983F85820C3E91E011F49C3F837
:1012400080101F491F480B60F021C3E90422C3E945
:101250000622C3E90822C3E90A22C3E90E22C3E930
:101260001022C3E91422C3E917225A6683F87020BA
:101270005A67C3E9016501801348018013484FF4A0
:10128000A07101801248018012490A70012283F87E
:101290003420114A1A6070BDD40500207413002058
:1012A00048050020785F02082C050020A4040020D7
:1012B0000000010101000001000450001A001400A8
:1012C00074690120686901206E6901206A69012042
:1012D000706901206C690120046102080148FFF770
:1012E00075BC00BFD4050020002070478180704786
:1012F000C1807047018170474181704770477047D6
:1013000070477047704710B4C4880368121B848804
:101310005B6D091B12B25DF8044B09B218474FF61A
:10132000FF7383814FF0FF3303621368C361106062
:101330007047002070478B8883800120704770477A
:1013400080F82610704790F82600704710B50022EC
:10135000B1F90840B1F90A10028042808480C1804E
:1013600010BD0022028042808280C28070470177D7
:10137000704780ED080A704780F82410704780F8A5
:101380002510704701207047983070478C307047A7
:101390008430704770470000034B902283F85A2333
:1013A00083F85823704700BF00E100E0094A0A496A
:1013B000D3680A48C3F30A03013B9BB20B8011694F
:1013C000C1F30A01013901801364536B43F0010337
:1013D000536370470068014046580020445800207D
:1013E000014BD3F8AC00704700680140024B01226A
:1013F000C3F8AC105A6270470068014070477047EC
:1014000010B52C21044622F021FE204610BD10B557
:10141000BC21044622F01AFE204610BD70B50446D9
:101420000AF063FC23689D6E10F050FB01462046D5
:10143000A8472368054AD3F88C502046AC460023C1
:10144000BDE87040A2F51631604700BF00B004D07F
:101450000AF032BC0AF03CBC0AF0F8BB0AF067BDE7
:1014600090F8252012B103685B691847704790F81F
:1014700025201AB190F8242002B1186070470000AE
:10148000034B4FF080629A604FF080729A60704711
:1014900000E100E0084B4FF08062C3F88820BFF302
:1014A0004F8FBFF36F8F4FF08072C3F88820BFF368
:1014B0004F8FBFF36F8F704700E100E070B50023DE
:1014C000124E8380124B0360336893F85820054610
:1014D0000AB1D86C00B998680368DB6A984733682A
:1014E000B0FA80F4D86C640930B10368DB6A9847BD
:1014F000002808BF44F001042CB9064B064A0748EF
:101500002C2123F0E9FC284670BD00BF746901203E
:1015100024660208206502087E650208B765020895
:1015200070B5254E3568BFF35B8F15F0010540D1CE
:10153000304622F08DFD00283BD0204C204B256109
:1015400004F13400C4E90035C4E90255E584A5621C
:10155000A58512F008F804F158000CF04DFF194B66
:10156000A3652046184B40F8843BFFF7A7FF174BB5
:10157000C4F884302433C4F88C304FF4C803C4E971
:1015800028350023C4F8AC30C4F8B030C4F8B43007
:10159000C4F8B8300E480F4BC4F89050C4F89C50B3
:1015A000C4F8A850C4F8983023F0B4FC304622F0B8
:1015B0005BFD024870BD00BF485800204C58002019
:1015C0000875020844660208BC660208BC7402087A
:1015D000951300089C74020838B5184C23685BB357
:1015E000174B184A1B6C11888B4216D1164B198861
:1015F00006F092FD236893F86A200025013283F8F3
:101600006A2083F87C50FFF7B5FA20680BF0EAF8FF
:101610002846BDE83840FFF7F5B806F07DFD2468A0
:10162000236820461B6A9847012384F87C300020F9
:10163000BDE83840FFF710B938BD00BF746901201C
:1016400000680140465800204458002007B5064B6A
:10165000ADF806001B68054801220DF1060107F0F0
:10166000FBFA03B05DF804FB100000205059002085
:101670002DE9F74F414CDFF810A14FF400612046EF
:1016800005F032FF4FF480510746204605F02CFF4D
:101690004FF4804106463A4805F026FF9AF800804C
:1016A000B8F1010F05461AD1CFB936484C238DF851
:1016B00007303A460A230DF10701006808F08DF85B
:1016C00042464FF48061204605F014FF642007F085
:1016D0009EFF3A464FF48061204605F00BFFDFF88D
:1016E000AC9099F80080B8F1010F1AD1CEB9254815
:1016F00052238DF8073032460A230DF107010068A6
:1017000008F06BF842464FF48061204605F0F2FE87
:10171000642007F07CFF32464FF48061204605F0DC
:10172000E9FEDFF86C8098F800B0BBF1010F1AD128
:10173000CDB9144854238DF807302A460A230DF1F9
:101740000701006808F049F85A464FF480612046C6
:1017500005F0D0FE642007F05AFF2A464FF480615E
:10176000204605F0C7FE14208AF8007089F8006052
:1017700088F8005007F04BFF7FE700BF00080240E9
:1017800000000240105900200E0000200D00002033
:101790000C00002030B595B0102200210AA823F0DB
:1017A000A2FD1422002103A823F09DFD00241E4B5E
:1017B00001941A6C42F080521A641B6C03F080533F
:1017C0000193019B194B02941A6842F440421A603B
:1017D0001B6803F4404302930122029B4FF48033C1
:1017E000CDE9082302254FF480030821CDE90E53EB
:1017F0004FF4B473CDE9101308A804231393129582
:1018000006F0E2FC06F0A6FC0F23CDE903354FF409
:10181000A0504FF48053CDE90603052103A8059499
:1018200006F0AEFE15B030BD00380240007000403A
:101830002DE980489BB005F0D5FBFFF7ABFF1422E4
:1018400000210DA823F04FFD0024C84B00941A6B13
:10185000C748C84D42F010021A631A6B02F010021A
:101860000092009A01941A6B42F020021A631A6BDC
:1018700002F020020192019A02941A6B42F0800257
:101880001A631A6B02F080020292029A03941A6B96
:1018900042F004021A631A6B02F004020392039AE4
:1018A00004941A6B42F001021A631A6B02F00102EF
:1018B0000492049A05941A6B42F002021A631A6B9E
:1018C00002F002020592059A06941A6B42F0400259
:1018D0001A631A6B02F040020692069A07941A6B7A
:1018E00042F008021A631B6B03F0080322460793B9
:1018F0003C21079B05F0FEFD9F480122022105F0D7
:10190000F9FD22469C4840F2044105F0F3FD2246D1
:101910009A484FF4405105F0EDFD224698484FF4A7
:10192000C04105F0E7FD01263C23CDE90D36904886
:101930000F9403230DA9109305F0F2FC40F202432B
:101940008D480DA90227CDE90D36CDE90F4405F0EC
:10195000E7FC042388480F940DA9CDE90D361097B4
:1019600005F0DEFC44F2060386480F960DA9CDE98A
:101970000D3405F0D5FC4FF4405380480DA9CDE956
:101980000D36CDE90F4705F0CBFC4FF4C0537A4834
:101990000F960DA9CDE90D3405F0C2FC0DA94FF449
:1019A000C0437748CDE90D36CDE90F4405F0B8FCCA
:1019B0007548764B036005F0A7FBDFF8F0C1744B68
:1019C0002C62C5E900C328464FF48043C5E90434BE
:1019D000C5E90244C5E9064405F09AFF10212846EE
:1019E00006F0DEF92146284606F0F9F9694DDFF8E0
:1019F000C0E1AC624FF48273C5E900E34FF40078B4
:101A00001823C5E9068328460A23C5E90244C5E927
:101A10000444C5E90844EB6207F0C2F88F2322466C
:101A2000394655488DF824308DF8344005F062FD74
:101A300032464FF47A7309A9284607F00DF94FF49E
:101A40007A7332460DA9284607F0B2FA3246394673
:101A50004948514D05F04EFD9DF83430D32B04BF5D
:101A60004E4B1E704E4B0127C5E900374FF0100A50
:101A700040230024C5E904A34FF4C073C5E906342C
:101A80004FF40063C5E908344FF4005302264FF0C9
:101A90000409AB624FF0030B07230DA92846CDE9DB
:101AA0000D63CDE90F934FF00808C5E90249CDE970
:101AB00011B6139606F058FF4FF6FF7209A9284693
:101AC000CDE90A87089409970C9406F06DFF384613
:101AD00005F0B4FA4FF6FF7209A92846CDE9096866
:101AE000CDE90B7406F060FF4FF6FF7209A9284696
:101AF000CDE909B8CDE90B9406F056FF4FF40C730D
:101B00000893089B0C934FF6FF7209A92846CDE96C
:101B100009980B9706F048FF40F26A51284606F0F4
:101B200061FF342221460DEB020023F0DCFB1D4D4A
:101B30001D4B2C61C5E900340923C5E905371D2378
:101B4000C5E9073B40F20D1240F24313C5E90923F2
:101B500040F2171140F247132846C5E90B13C5E9B7
:101B60000244AC8685F8364024E000BF00380240CD
:101B700000100240505A002000080240000C0240B1
:101B80000018024000000240E45A002000300240E9
:101B9000A0860100505900201C5900200C5900203B
:101BA000400100A0A859002000680140005C0040EE
:101BB0000050014006F0B8F9FF21F022CDE91214DF
:101BC0004FF4806005214FF4A073CDE91401CDE9F5
:101BD0000E240DA9CDE9164228462246204D189321
:101BE000CDE910360D94ADF864408DF8664006F0EE
:101BF00066FA1C4B2B601B6898472B681A4DDB68F4
:101C000098471A4B2846C5E90034C5E90264C5E97E
:101C10000A46C5E90C4405F087FA3946284605F01E
:101C20003BFBFEF727FDFEF724FD07F07DFC104A85
:101C30003146504607F096FD0E4B0F4A186021467C
:101C40000E4807F09DFC0E4B0E4A186021460E48C8
:101C500007F096FC0D4B186007F078FCFEE700BF1C
:101C600008590020FC000020A45A002000B00240C7
:101C700020670208105900205C67020871160008EE
:101C800018590020386702088306000814590020FC
:101C9000704770477FB5094B8DF817201B6802937A
:101CA0000DF117020123009201930A4601460448F0
:101CB00005F0D6FE07B05DF804FB00BF140000205D
:101CC000505A00207FB500238DF81730084B1B6851
:101CD00002930A4601230DF1170100910193014679
:101CE000044805F04DFF9DF8170007B05DF804FBB0
:101CF00014000020505A00201FB5084C24680092A0
:101D0000CDE901340A4601230146054805F038FFB4
:101D1000003818BF012004B010BD00BF140000201F
:101D2000505A002005F08AB910B5064C0022204612
:101D3000042105F0DFFB20460122BDE8104004210C
:101D400005F0D8BB0008024038B50B4D044601220F
:101D50000A484FF4005105F0CDFB0022042128462B
:101D600005F0C8FB2046FFF771FC28460122BDE8BC
:101D70003840042105F0BEBB00080240000C0240C0
:101D800038B50B4D044600220A484FF4005105F0C7
:101D9000B1FB00220421284605F0ACFB2046FFF7EA
:101DA00055FC28460122BDE83840042105F0A2BBBD
:101DB00000080240000C0240F7B5144E144F0546CF
:101DC0000C4630460022042105F094FB00224FF41B
:101DD0000051384605F08EFB2846FFF737FC0D4BC7
:101DE0000D481B68224601A907F0E2F83846012297
:101DF0004FF40051019C05F07DFB30460122042187
:101E000005F078FB204603B0F0BD00BF000802409B
:101E1000000C0240100000205059002005F00EB9BF
:101E20000268034B9A4201D105F0F6B8704700BF33
:101E3000001000407047000082B00E4B002200925C
:101E4000596C41F480415964596C01F4804100910E
:101E500000990192196C41F0805119641B6C03F0D8
:101E600080530193019B0F216FF0010002B005F038
:101E70000BB900BF003802400268094B9A4282B099
:101E80000BD100230193074B1A6B42F480521A6363
:101E90001B6B03F480530193019B02B0704700BF9A
:101EA000003002400038024007B50F4B02689A42EA
:101EB00016D10022A3F5F0430192196B41F4000101
:101EC00019631B6B03F40003019305215A20019B46
:101ED00005F0DAF85A2003B05DF804EB05F006B916
:101EE00003B05DF804FB00BF00B002402DE9F043F1
:101EF000044689B01422002103A823F0F4F92268D3
:101F0000244B9A4243D1244C244800250095236B4E
:101F100043F004032363236B03F004030093009B4B
:101F20000195236B43F001032363236B03F001034B
:101F30000193019B4FF012094FF400734FF0010819
:101F40000327042603A9CDE90339CDE905870796C0
:101F500005F0E6F94FF480731148079603A9CDE91F
:101F60000339CDE9058705F0DBF90295236C43F4CD
:101F700000032364236C03F400030293029B236A8F
:101F800043F400032362236A23F40003236209B0AD
:101F9000BDE8F083005C00400038024000080240C9
:101FA00000000240F0B599B004461422002107A8B1
:101FB00023F099F930220DEB0200002123F093F970
:101FC00022685E4B9A4240F0B78008230C93C023EE
:101FD0001093042312930CA84FF40033159306F0CA
:101FE00097FB08B1FFF726FF554B56480024009495
:101FF0005A6C42F080625A645A6C02F0806200921D
:10200000009A01941A6B42F020021A631A6B02F0D4
:1020100020020192019A02941A6B42F001021A63A3
:102020001A6B02F001020292029A03941A6B42F0B8
:1020300002021A631A6B02F002020392039A0494DA
:102040001A6B42F040021A631A6B02F040020492CB
:10205000049A05941A6B42F004021A631A6B02F098
:1020600004020592059A06941A6B42F008021A635C
:102070001B6B03F00803069302250E26069B0B96A6
:102080004FF4806307A9CDE90735CDE9094505F08F
:1020900047F941F658032C480B9607A9CDE90735B7
:1020A0000927CDE9094505F03BF9032327480B979C
:1020B00007A9CDE90735CDE9094505F031F94FF418
:1020C000706322480B9607A9CDE90735CDE909458C
:1020D00005F026F94FF40C631D480B9607A9CDE9CE
:1020E0000735CDE9094505F01BF9C02319480B96C2
:1020F00007A9CDE90735CDE9094505F011F9082310
:1021000015480B9607A9CDE90735CDE9094505F036
:1021100007F94FF4A0530E480B9707A9CDE90735EF
:10212000CDE9094505F0FCF858202246052104F0C8
:10213000ABFF582004F0DAFF19B0F0BD0068014091
:102140000038024000140240000002400004024037
:102150000018024000080240000C024010B504467E
:1021600088B01422002103A823F0BDF82268144B84
:102170009A4223D103F56843002101915A6C11481A
:1021800042F480125A645A6C02F480120192019A4D
:1021900002911A6B42F020021A631B6B03F02003BA
:1021A0000293029B4FF4607202230321CDE90323C3
:1021B0000523CDE9061303A905F0B2F808B010BD58
:1021C00000500140001402402DE9F04186B0002388
:1021D00003932B4B1C68002C4FD14FF00108C3F820
:1021E0000080284B00949A6B274842EA08029A63C1
:1021F0009B6B03EA08030093022703260C25009B30
:1022000001A94FF63F03CDE90137CDE9046505F09B
:1022100087F81E48059501A9CDE90187CDE9034658
:1022200005F07EF848F233131948059501A9CDE968
:102230000137CDE9034605F073F84FF6837315486F
:10224000059501A9CDE90137CDE9034605F068F808
:102250004CF203731048059501A9CDE90137CDE98A
:10226000034605F05DF860230C48059501A9CDE90A
:102270000137CDE9034605F053F806B0BDE8F0811B
:10228000EC5A0020003802400014024000080240CE
:102290000018024000100240000C024000040240FE
:1022A00070B588B000230293204B1A6C42F01002E4
:1022B0001A641B6C03F010030293054601A903A8DE
:1022C000029B06F007FA069B4BBB06F0F3F9184E8B
:1022D000184B336040F2E733F360174BB0FBF3F376
:1022E000013B7360304600233361B360B36107F094
:1022F00043F8044680B9304606F000FF044658B95A
:10230000362004F0F3FE0F2D0DD822462946362044
:1023100004F0BAFE094B1D60204608B070BD06F0FF
:10232000C9F94000D3E70124F6E700BF00380240B6
:10233000F05A00200010004040420F0064010020CD
:102340007047FEE7FEE7FEE7FEE77047014806F04C
:1023500013BF00BFF05A0020014805F053BE00BF74
:10236000A8590020014804F00DBF00BFA45A002066
:102370000120704708B523F059F8162303604FF089
:10238000FF3008BD08B523F051F816230360FEE7BF
:1023900070B50D4614460E46731B9C4201DC204668
:1023A00070BDAFF3008006F8010BF5E770B50D4680
:1023B00014460E46731B9C4201DC204670BD16F885
:1023C000010BAFF30080F5E74FF0FF3070474FF49B
:1023D00000534B6000207047012070470020704779
:1023E0000A4A116808B5034609B90949116010681D
:1023F000694603448B4206D923F018F80C23036086
:102400004FF0FF3008BD1360FCE700BF385B0020D1
:10241000B8760120704710B50421044621F016FE5D
:10242000204610BD012908B506D0022908D059B9A7
:1024300003F042FD006808BD03F03EFD4068FAE786
:1024400003F03AFD8068F6E70020F4E700487047A3
:10245000946702080620704713B5002451B1036841
:1024600001948DF8034001AA9C680DF10303A04775
:1024700002B010BD0846FBE7C0897047008A70476C
:10248000C088704780887047807A00F07F0070476E
:10249000807AC00970470020704700009FED010A54
:1024A000704700BF00000000704710B508210446C7
:1024B00021F0CCFD204610BD7047704700F59873A1
:1024C0000868496803C370477047704741607047A8
:1024D00070470000064BC0F84C310023C0F8503163
:1024E00000F5A273C0F84801C0F84031704700BF42
:1024F0006D260008012303727047704770477047CC
:1025000010B4C26841685410034601EB6200D20760
:1025100048BF0A599B685DF8044B48BFD358184719
:102520000346406830B19A681AB9D86800F00100D3
:1025300070470120704710B50C21044621F086FD3C
:10254000204610BD10B51021044621F07FFD204625
:1025500010BD10B54FF4AE71044621F077FD204652
:1025600010BD10B54021044621F070FD204610BD7D
:1025700010B50FF0ABFA0368BDE81040DB6B1847ED
:10258000054B1B7801462BB1406818B103680C312C
:102590005B6E1847704700BF73690120037A70B5FE
:1025A0000546BBB940680368DB69984704463CB9F7
:1025B0006868036805F10C011B6EBDE870401847A0
:1025C000A1886B8FC91A236820461B6B09B29847F4
:1025D000A469ECE770BD10B50446D0F8400158B1CD
:1025E0000368DB68984738B1D4F8400103689B68FA
:1025F00098470023C4F8403110BD70B5044690F8E8
:10260000390094F838300130C0B2984284F839006B
:1026100005D901232372002384F8393070BDB4F941
:102620003A20002111F008FCC30706D500284FF618
:10263000FF73C8BF0123184400B2238AC01AA087C1
:1026400060680368DB69984705462DB960680368D0
:10265000BDE870405B691847A988A38F19442B68AF
:1026600028461B6B09B29847AD69EEE72DE9F14F9B
:10267000D0E9556A0746B06803681B6A9847B0F509
:102680008E7F05D2444B454AA321454822F024FCC5
:10269000706803681B6A98470F2803D8414B3F4A6C
:1026A000A421F2E7F06803681B6A98470B2803D857
:1026B0003D4B3A4AA521E8E70FF008FADFF8F09021
:1026C00004300FF028FAD9F8000010B10368DB6875
:1026D0009847D9F8000010B103681B689847DFF8E5
:1026E000D480D8F8000010B103685B699847D7F828
:1026F0003C0110B103685B689847D8F8000010B13E
:1027000003681B689847D7F83C0110B103689B68C1
:102710009847F068036800215B6A98474FF0000B08
:10272000224BC0F804B0044680F808B00360B068DB
:10273000036859465B6A9847054603F029FC7068B0
:10274000036859465B6A98472946064603F0FEFB34
:10275000331DC7F83C61C9F80040C8F80050CAF8FA
:1027600000302B68C6F808A02846DB68EE6398475F
:10277000336830461B6898472146284611F056FBBF
:10278000236820461B69984723685B69204601B08F
:10279000BDE8F04F184700BF1C680208AA6802088D
:1027A0007C690208C3690208666A0208486D02086B
:1027B000BC690120B8690120044B1B6893F85820BC
:1027C0000AB1D86C00B99868704700BF74690120DD
:1027D000F8B5174604460E460FF03AFA124B1C6045
:1027E000124B2360124B0025C4E95135114BC4E94B
:1027F00053551868036801219B68C4E94F55C4E923
:1028000055769847284603F00BFBFFF7D5FF19F0E4
:102810001AFBFFF7D1FF19F091FBFFF7CDFF19F07D
:1028200099FB2046F8BD00BFC8690120F46C02087E
:10283000DC6C020874690120064BC0F84C3100239F
:10284000C0F8503100F5A273C0F84801C0F840311B
:10285000704700BF6D260008064BC0F84C310023BE
:10286000C0F8503100F5A273C0F84801C0F84031FB
:10287000704700BF492A0008064BC0F84C310023BE
:10288000C0F8503100F5A273C0F84801C0F84031DB
:10289000704700BF0D2900082DE9F04105460026CC
:1028A000164B4660067245F80C3B044628460F4618
:1028B0000BF04AFE124B84F838701B7884F83960AC
:1028C000A68723B9012323722046BDE8F0810D4B72
:1028D0000D4FB3F90080E368B7F900109B6B2661D8
:1028E00028469847E3684146DB6B284698472846C8
:1028F0000BF0A5FD3B885B426387E5E76C6D020842
:10290000736901206A690120686901202DE9F04797
:10291000D0E9556A0746B06803681B6A984744F2D5
:10292000EB23984205D8414B414AA321414822F06C
:10293000D3FA706803681B6A98470F2803D83E4B88
:102940003B4AA421F2E7F06803681B6A98473F28D6
:1029500003D83A4B364AA521E8E70FF0B7F8DFF87D
:10296000E09004300FF0D7F8D9F8000010B10368F8
:10297000DB689847D9F8000010B103681B689847D6
:10298000DFF8C080D8F8000010B103685B69984791
:10299000D7F83C0110B103685B689847D8F800008D
:1029A00010B103681B689847D7F83C0110B1036861
:1029B0009B689847F068036800215B6A9847142178
:1029C0000446FFF769FFB068036800215B6A984717
:1029D000054603F01BFB7068036800215B6A98479B
:1029E0002946064603F0EEFA331DC7F83C61C9F8E4
:1029F0000040C8F80050CAF800302B68C6F808A09C
:102A00002846DB68EE639847336830461B68984772
:102A10002146284611F00AFA236820461B69984788
:102A2000236820465B69BDE8F04718471C68020828
:102A3000096B02087C690208C3690208666A020819
:102A4000BC690120B86901202DE9F047D0E9556A39
:102A50000746B06803681B6A9847B0F58E7F05D2B9
:102A6000414B424AA321424822F036FA706803687B
:102A70001B6A98470F2803D83E4B3C4AA421F2E733
:102A8000F06803681B6A98473F2803D83A4B374AD7
:102A9000A521E8E70FF01AF8DFF8E09004300FF016
:102AA0003AF8D9F8000010B10368DB689847D9F804
:102AB000000010B103681B689847DFF8C480D8F89D
:102AC000000010B103685B699847D7F83C0110B16A
:102AD00003685B689847D8F8000010B103681B686A
:102AE0009847D7F83C0110B103689B689847F06895
:102AF000036800215B6A984714210446FFF7CCFE67
:102B0000B068036800215B6A9847054603F040FA05
:102B10007068036800215B6A98472946064603F0FF
:102B200015FA331DC7F83C61C9F80040C8F80050D9
:102B3000CAF800302B68C6F808A02846DB68EE63A8
:102B40009847336830461B6898472146284611F05D
:102B50006DF9236820461B699847236820465B6906
:102B6000BDE8F047184700BF1C680208EE6B02087A
:102B70007C690208C3690208666A0208BC69012010
:102B8000B8690120406A7047806A704770478A8838
:102B90000B8810B5D20A4C88C1699BB251F822004B
:102BA00043EA0443184410BD10B50446BAB1107B83
:102BB00068B1537BD27A1B0203F4E0631A43236AA1
:102BC00003EB82031A888A4202D193F9020010BDF6
:102BD00005D8013880B204330028F3D1F7E700208C
:102BE000F5E710B52C21044621F030FA204610BD3F
:102BF00030B58BB00446BDF860500895BDF85C5008
:102C000007959DF8505006959DF84C5005959DF8F8
:102C1000485004959DF8445003959DF84050029506
:102C20009DF83C500195BDF83850009510F058FDC6
:102C3000064B2360159BE361169B2362199B63621D
:102C40001A9BA36220460BB030BD00BF906D0208F6
:102C500070477047704770477047704770477047BC
:102C600030B4C26844685510034604EB6200D207D2
:102C700048BF62599B6830BC48BFD35818470346C9
:102C8000406830B19A681AB9D86800F001007047FE
:102C90000120704710B51021044621F0D7F92046D5
:102CA00010BD10B54FF48E71044621F0CFF92046C7
:102CB00010BDC430884208B505D10EF007FFBDE84D
:102CC0000840FFF7D9BD08BD70B5036804461B6B0B
:102CD000154698472368294620465B6BBDE870403F
:102CE00018470000002310B5C0E90133C0E90333E1
:102CF000C0E90733C0E905334FF480738384064B82
:102D000003600B88C384FF23044680F828300CF04E
:102D1000EFF9204610BD00BF10780208F8B5194B36
:102D2000018F1B888B4206462AD9174B1B682BB98B
:102D3000164B174A17486C2122F0CEF813F81120D1
:102D4000154B1B6853F82250144B186803F0A4F875
:102D50002B6807469B6B284698472B6804469B6C5C
:102D60003946284698472B6814FB00F45B6A3946BD
:102D700028469847A4B223181BB2A6F84630F8BDDF
:102D80000023FAE7D0690120CC690120F06D020828
:102D9000326E02086D6E0208D4690120D8690120E4
:102DA0002DE9F3470446264610F094FE0025484BD3
:102DB000E56346F8403B474B2566C4E910354FF4C0
:102DC000807304F16C0AA4F86430FF2384F8663041
:102DD00004F198094FF6FF7701A9C4E91255C4E937
:102DE0001455C4E91655A5665046ADF80470FFF7B2
:102DF00079FF01A9ADF80470484604F1C407FFF754
:102E000071FF38460CF0B6FA334BC4E94334334B08
:102E10002A46C4E9453529463046FFF755FF304676
:102E2000F021FEF767FA30464FF4A071FEF764FA1E
:102E300004F104084FF07F43A3663146404608F092
:102E400069FC2A4629465046FFF73EFF04230DEB56
:102E500003015046ADF804300CF04AF951464046A3
:102E600008F058FC2A4629464846FFF72DFF05235F
:102E700001A94846ADF804300CF03AF949464046FD
:102E800008F048FC3846E6220A21FFF71DFF03231D
:102E900001AA69463846ADF80030ADF804300BF0B1
:102EA00059FF0223A4F8FC303846FFF737FF4FF0F4
:102EB000FF33C4E9403304F586734046C4F8EC3070
:102EC000394608F027FC204602B0BDE8F08700BF75
:102ED000D46E0208CC760208BC6E0208B32C00083F
:102EE00030B50368018185B06D460146D3F8843062
:102EF00004462846984795E807003C3484E80700D4
:102F000005B030BD30B50368418185B06D460146DE
:102F1000D3F8843004462846984795E807003C34A7
:102F200084E8070005B030BD002202804280828024
:102F3000C280704780F83610704770B50368044649
:102F40001B6B154698472368294620465B6EBDE8F3
:102F50007040184700207047806C7047704770477A
:102F60007047704730B4C26844685510034604EB9C
:102F70006200D20748BF62599B6830BC48BFD35833
:102F800018470346406830B19A681AB9D86800F00B
:102F9000010070470120704710B54C21044621F014
:102FA00055F8204610BD10B51021044621F04EF80A
:102FB000204610BD10B542F62061044621F046F8C7
:102FC000204610BD08B5FEF74BFA08BD036870B582
:102FD0005E6B124B1B6804468DB22BB9104B114A25
:102FE0006C21114821F078FF1049828D09889142A7
:102FF00003D80F4B0B4A6D21F3E713F812200D4B4A
:103000001B6853F8220003681B6B9847291A334644
:10301000204609B2BDE87040184700BFCC690120C6
:10302000F06D0208326E02086D6E0208D069012050
:10303000006F0208D469012000F537501C3081422E
:1030400008B505D10EF042FDBDE80840FFF704BC0D
:1030500008BD00224FF0FF31C0E9002182607047B7
:1030600070B504461D46BDF91060FFF72DFE2368BC
:10307000294620469B6B9847236831462046DB6BE8
:10308000BDE87040184700000022C0E90122C0E9F5
:103090000322C0E90522C0E907224FF4807282842E
:1030A000014A0260704700BF486F020810B526222F
:1030B0000446002122F017F92046FFF7E5FF044BF4
:1030C0002360FF2384F826300023A362204610BD2E
:1030D000CC76020810B50446FFF7E8FF034B2360E7
:1030E0000023E3622386204610BD00BFA8770208B4
:1030F00010B526220446002122F0F5F82046FFF7FD
:10310000C3FF0A4B23600A4BA3624FF6FF73A385EC
:103110004FF47F020023C4E90C3223874FF0FF32C3
:10312000C4E91023E363204610BD00BF3C760208CB
:10313000146802082DE9F04F0546ADF56B7DA946F0
:103140004FF0000B10F0C6FCDA4BC5F83CB049F864
:10315000403B05F16C0426274846FFF7A7FF4FF6D2
:10316000FF783A4659462046ADF8A08322F0BBF8D6
:103170002046FFF789FFD04BEB66BDF8A033A5F8DA
:103180009230E8A985F8948020460BF0B1FF05F154
:10319000980318468A93FFF79DFF05F1CC03184664
:1031A0008B93FFF797FF05F5807318468C93FFF715
:1031B00091FF05F59A7318468D93FFF78BFF05F580
:1031C000B47318468E93FFF785FF05F5CE73184646
:1031D0008F93FFF77FFF05F5E87318460493FFF719
:1031E00087FF05F5067318460593FFF781FFB34B7C
:1031F000C5F8183205F51973C5F860B218469093F2
:10320000FFF768FF05F5267318469193FFF762FFF5
:1032100005F5337318469293FFF75CFF05F540738D
:1032200018469393FFF756FF05F54D731846949390
:10323000FFF750FF05F55A7318469593FFF74AFFBD
:1032400005F5677318469693FFF744FF05F5747309
:1032500018469793FFF73EFF05F2044318469893EC
:10326000FFF738FF05F5876318469993FFF732FF9C
:1032700005F26C4318469A93FFF72CFF05F594630B
:1032800018469B93FFF726FF05F2D44318469C93FC
:10329000FFF720FF05F5A16318469D93FFF71AFF7E
:1032A00005F23C5318469E93FFF714FF05F5AE63F5
:1032B00018469F93FFF70EFF05F2A4531846A093FC
:1032C000FFF708FF05F5BB631846A193FFF702FF60
:1032D00005F20C631846A293FFF7FCFE05F5C863E0
:1032E0001846A393FFF7F6FE05F274631846A493FD
:1032F000FFF7F0FE05F5D5631846A593FFF7EAFE44
:1033000005F2DC631846A693FFF7E4FE05F5E263D9
:103310001846A793FFF7DEFE05F244731846A893FC
:10332000FFF7D8FE05F5EF631846A993FFF7D2FE25
:1033300005F2AC731846AA93FFF7CCFE05F5FC63C3
:103340001846AB93FFF7C6FE05F614031846AC9378
:10335000FFF7C0FE05F648031846AD93FFF7BAFE27
:1033600005F67C031846AE93FFF7B4FE05F50B6334
:103370001846AF93FFF7AEFE05F6E4031846B09388
:10338000FFF7A8FE05F618131846B193FFF7A2FE43
:1033900005F64C131846B293FFF79CFE05F518632B
:1033A0001846B393FFF796FE05F6B4131846B49388
:1033B000FFF790FE05F6E8131846B593FFF78AFE6F
:1033C00005F61C231846B693FFF784FE05F5256322
:1033D0001846B793FFF77EFE05F684231846B89388
:1033E000FFF778FE05F6B8231846B993FFF772FE8B
:1033F00005F6EC231846BA93FFF76CFE05F5326329
:103400001846BB93FFF766FE05F654331846BC9387
:10341000FFF760FE05F688331846BD93FFF75AFEA6
:1034200005F6BC331846BE93FFF754FE05F53F631F
:103430001846BF93FFF74EFE05F624431846C09387
:10344000FFF748FE05F658431846C193FFF742FEC2
:1034500005F68C431846C293FFF73CFE05F54C6316
:103460001846C393FFF736FE05F6F4431846C49397
:10347000FFF730FE05F628531846C593FFF72AFEDE
:1034800005F65C531846C693FFF724FE05F559630D
:103490001846C793FFF71EFE05F6C4531846C89397
:1034A000FFF718FE05F6F8531846C993FFF712FE0A
:1034B00006E000BF5870020810780208B06F0208DA
:1034C00005F62C631846CA93FFF704FE05F56663FC
:1034D0001846CB93FFF7FEFD05F694631846CC9390
:1034E000FFF7F8FD05F6C8631846CD93FFF7F2FD28
:1034F00005F6FC631846CE93FFF7ECFD05F5736304
:103500001846CF93FFF7E6FD05F664731846D0938F
:10351000FFF7E0FD05F698731846D193FFF7DAFD43
:1035200005F6CC731846D293FFF7D4FD05F580530A
:103530001846D393FFF7CEFD05F581531433184693
:103540000693FFF7C7FD05F5835308331846079325
:10355000FFF7C0FD05F584531C3318460893FFF7A9
:10356000B9FD05F58653103318460993FFF7B2FDF0
:1035700005F58853043318460A93FFF7ABFD05F5AC
:103580008953183318460B93FFF7A4FD05F58B53A9
:103590000C3318460C93FFF79DFD05F58D53184627
:1035A000D493FFF797FD05F58E53143318460D930A
:1035B000FFF790FD05F59053083318460E93FFF77B
:1035C00089FD05F591531C3318460F93FFF782FDD3
:1035D00005F59353103318461093FFF77BFD05F55F
:1035E0009553043318461193FFF774FD05F5965370
:1035F000183318461293FFF76DFD05F598530C33F9
:1036000018461393FFF766FD05F59A531846D593B0
:10361000FFF760FD05F59B53143318461493FFF72D
:1036200059FD05F59D53083318461593FFF752FDD4
:1036300005F59E531C3318461693FFF74BFD05F511
:10364000A053103318461793FFF744FD05F5A25316
:10365000043318461893FFF73DFD05F5A3531833BF
:1036600018461993FFF736FD05F5A5530C33184698
:103670001A93FFF72FFD05F5A7531846D693FFF7CA
:1036800029FD05F5A853143318461B93FFF722FDB7
:1036900005F5AA53083318461C93FFF71BFD05F5E3
:1036A000AB531C3318461D93FFF714FD05F5AD53BE
:1036B000103318461E93FFF70DFD05F5AF53043385
:1036C00018461F93FFF706FD05F5B053183318464B
:1036D0002093FFF7FFFC05F5B2530C3318462193F6
:1036E000FFF7F8FC05F5B4531846D793FFF7F2FC43
:1036F00005F5B553143318462293FFF7EBFC05F597
:10370000B753083318462393FFF7E4FC05F5B85385
:103710001C3318462493FFF7DDFC05F5BA5310332C
:1037200018462593FFF7D6FC05F5BC53043318461D
:103730002693FFF7CFFC05F5BD53183318462793A2
:10374000FFF7C8FC05F5BF530C3318462893FFF765
:10375000C1FC05F5C1531846D893FFF7BBFC05F52E
:10376000C253143318462993FFF7B4FC05F5C4532C
:10377000083318462A93FFF7ADFC05F5C5531C33F3
:1037800018462B93FFF7A6FC05F5C75310331846D0
:103790002C93FFF79FFC05F5C953043318462D936E
:1037A000FFF798FC05F5CA53183318462E93FFF718
:1037B00091FC05F5CC530C3318462F93FFF78AFC88
:1037C00005F5CE531846D993FFF784FC05F5CF5382
:1037D000143318463093FFF77DFC05F5D1530833B9
:1037E00018463193FFF776FC05F5D2531C33184683
:1037F0003293FFF76FFC05F5D4531033184633931B
:10380000FFF768FC05F5D653043318463493FFF7E9
:1038100061FC05F5D753183318463593FFF75AFC6A
:1038200005F5D9530C3318463693FFF753FC05F5CD
:10383000DB531846DA93FFF74DFC05F5DC531433E0
:1038400018463793FFF746FC05F5DE530833184654
:103850003893FFF73FFC05F5DF531C3318463993C7
:10386000FFF738FC05F5E153103318463A93FFF79C
:1038700031FC05F5E353043318463B93FFF72AFC6C
:1038800005F5E453183318463C93FFF723FC05F580
:10389000E6530C3318463D93FFF71CFC05F5E8533F
:1038A0001846DB93FFF716FC05F5E9531433184669
:1038B0003E93FFF70FFC05F5EB53083318463F9393
:1038C000FFF708FC05F5EC531C3318464093FFF74F
:1038D00001FC05F5EE53103318464193FFF7FAFB50
:1038E00005F5F053043318464293FFF7F3FB05F553
:1038F000F153183318464393FFF7ECFB05F5F353E8
:103900000C3318464493FFF7E5FB05F5F5531846CD
:10391000DC93FFF7DFFB05F5F653143318464593A8
:10392000FFF7D8FB05F5F853083318464693FFF721
:10393000D1FB05F5F9531C3318464793FFF7CAFB33
:1039400005F5FB53103318464893FFF7C3FB05F505
:10395000FD53043318464993FFF7BCFB05F5FE53AE
:10396000183318464A93FFF7B5FB05F500530C339F
:1039700018464B93FFF7AEFB05F501531846DD9350
:10398000FFF7A8FB05F50153343318464C93FFF7B6
:10399000A1FB05F50253283318464D93FFF79AFB18
:1039A00005F503531C3318464E93FFF793FB05F5BB
:1039B0000453103318464F93FFF78CFB05F505535E
:1039C000043318465093FFF785FB05F5055338334C
:1039D00018465193FFF77EFB05F506532C33184626
:1039E0005293FFF777FB05F507532033184653939F
:1039F000FFF770FB05F50853143318465493FFF78F
:103A000069FB05F50953083318465593FFF762FB28
:103A100005F509533C3318465693FFF75BFB05F554
:103A20000A53303318465793FFF754FB05F50B53F1
:103A3000243318465893FFF74DFB05F50C53183304
:103A400018465993FFF746FB05F50D530C331846FE
:103A50005A93FFF73FFB05F50E531846DE93FFF729
:103A600039FB05F50E53343318465B93FFF732FBF1
:103A700005F50F53283318465C93FFF72BFB05F52C
:103A800010531C3318465D93FFF724FB05F51153C3
:103A9000103318465E93FFF71DFB05F512530433F0
:103AA00018465F93FFF716FB05F512533833184697
:103AB0006093FFF70FFB05F513532C331846619302
:103AC000FFF708FB05F51453203318466293FFF700
:103AD00001FB05F51553143318466393FFF7FAFA03
:103AE00005F51653083318466493FFF7F3FA05F506
:103AF00016533C3318466593FFF7ECFA05F5175358
:103B0000303318466693FFF7E5FA05F5185324336A
:103B100018466793FFF7DEFA05F519531833184670
:103B20006893FFF7D7FA05F51A530C3318466993D3
:103B3000FFF7D0FA05F51B531846DF93FFF7CAFAD3
:103B400005F51B53343318466A93FFF7C3FA05F59E
:103B50001C53283318466B93FFF7BCFA05F51D5329
:103B60001C3318466C93FFF7B5FA05F51E53103356
:103B700018466D93FFF7AEFA05F51F530433184648
:103B80006E93FFF7A7FA05F51F53383318466F9366
:103B9000FFF7A0FA05F520532C3318467093FFF772
:103BA00099FA05F52153203318467193FFF792FADD
:103BB00005F52253143318467293FFF78BFA05F577
:103BC0002353083318467393FFF784FA05F52353FC
:103BD0003C3318467493FFF77DFA05F524533033D0
:103BE00018467593FFF776FA05F5255324331846E2
:103BF0007693FFF76FFA05F5265318331846779337
:103C0000FFF768FA05F527530C3318467893FFF74A
:103C100061FA05F528531846E093FFF75BFA05F5BE
:103C20002853343318467993FFF754FA05F529538E
:103C3000283318467A93FFF74DFA05F52A531C33BB
:103C400018467B93FFF746FA05F52B5310331846B9
:103C50007C93FFF73FFA05F52C53043318467D9308
:103C6000FFF738FA05F52C53383318467E93FFF7E3
:103C700031FA05F52D532C3318467F93FFF72AFAB6
:103C800005F52E53203318468093FFF723FA05F5E8
:103C90002F53143318468193FFF71CFA05F5305360
:103CA000083318468293FFF715FA05F530533C3375
:103CB00018468393FFF70EFA05F531533033184653
:103CC0008493FFF707FA05F532532433184685939A
:103CD000FFF700FA05F53353183318468693FFF7BC
:103CE000F9F905F534530C3318468793FFF7F2F9C9
:103CF00005F535531846E193FFF7ECF905F5355313
:103D0000343318468893FFF7E5F905F53653283321
:103D1000184605F500568993FFF7DCF905F537538A
:103D20001C333A46594606F6DC50039321F0DBFA81
:103D30000398DFF870A3FFF7A7F9D64BC6F8DC3D70
:103D4000D54BC6F8103ED54BC6F8183E01274FF4A8
:103D5000A073C6F804BE86F808BE86F8007EA6F8F2
:103D60000A8EA6F80C8E86F80E8EC6F8145E4FF0FA
:103D70007F48C6F81CBE5A462E1D00935946F023B4
:103D80004846FFF76DF9C5F868804946304607F0A8
:103D9000C1FC5A4659462046FEF796FF0423E8A97F
:103DA0002046ADF8A0330BF0A3F92146304610248D
:103DB00007F0B0FC23465A468A9800946021FFF72A
:103DC0004FF9DFF8E4928A99A5F8C870C5E930A8E0
:103DD000304607F09FFC23465A468B98009470218A
:103DE000FFF73EF9C5E93D988B99A5F8FC70304680
:103DF00007F090FC23465A468C9800948021FFF7E8
:103E00002FF9C5E94AA88C99A5F83071304607F01A
:103E100081FC23465A468D980094A021FFF720F993
:103E2000C5E957A88D99A5F86471304607F072FC72
:103E300023465A468E9800949021FFF711F9C5E960
:103E400064988E99A5F89871304607F063FC234674
:103E50005A468F9800945946FFF702F9C5E971A8B0
:103E60008F99A5F8CC71304607F054FC14230DF55A
:103E700062790498009324223C23B021FFF7F0F8E4
:103E80000499C5F80082A5F804B248460AF05CFC23
:103E900099E8070005F5037383E80700804B049851
:103EA000E893E8A9ADF8A4B30AF0F6FE0499304609
:103EB00007F030FC1422059800923C234022B021E8
:103EC000FFF7CEF8D5F818320599C5F84882A5F85D
:103ED0004CB24846D3F88430984799E8070005F576
:103EE000157383E807006E4B0598DFF8BC91E893E3
:103EF000E8A9ADF8A4730AF0CFFE0599304607F0A3
:103F000009FC23465A46909800942146FFF7A8F8EA
:103F1000C5E9A3989099A5F89472304607F0FAFB8A
:103F200023465A46919800942021FFF799F8C5E955
:103F3000B0A89199A5F8C872304607F0EBFB23466C
:103F40005A46929800943021FFF78AF8C5E9BD9847
:103F50009299A5F8FC72304607F0DCFB23465A46DE
:103F6000939800944021FFF77BF8C5E9CAA893997C
:103F7000A5F83073304607F0CDFB23465A46949897
:103F800000945021FFF76CF8C5E9D7989499A5F8EB
:103F90006473304607F0BEFB234622469598009492
:103FA000A021FFF75DF8C5E9E4989599A5F8987305
:103FB000304607F0AFFB23462246969800942146F0
:103FC000FFF74EF8C5E9F1A89699A5F8CC733046ED
:103FD00007F0A0FB23462246979800945021FFF754
:103FE0003FF8C5E9FEA89799A5F80074304607F098
:103FF00091FB23462246989800946021FFF730F801
:104000009899C5F82C94C5F83084A5F834743046D6
:1040100007F080FB23462246999800947021FFF711
:104020001FF89999C5F860A4C5F86484A5F8687468
:10403000304607F06FFB234622469A980094902161
:10404000FFF70EF89A99C5F894A4C5F89884A5F8D6
:104050009C74304607F05EFB234622469B980094F2
:104060008021FEF7FDFF9B99C5F8C894C5F8CC8464
:10407000A5F8D074304607F04DFB234622469C98A5
:1040800000945946FEF7ECFF9C99C5F8FC94C5F8DE
:1040900000850BE0347702084070020839300008D0
:1040A00014680208F7F0DAFFCFB359FFA5F80475DA
:1040B000304607F02FFB234622469D98009420218E
:1040C000FEF7CEFF9D99C5F83095C5F83485A5F863
:1040D0003875304607F01EFB234622469E98009412
:1040E0003021FEF7BDFF9E99C5F864A5C5F8688527
:1040F000A5F86C75304607F00DFB234622469F98C5
:1041000000944021FEF7ACFF9F99C5F89895C5F83B
:104110009C85A5F8A075304607F0FCFA2346A098C8
:10412000009420226021FEF79BFFA099C5F8CCA542
:10413000C5F8D085A5F8D475304607F0EBFA2346CC
:10414000A198009420227021FEF78AFFA199C5F85A
:104150000096C5F80486A5F80876304607F0DAFA26
:104160002346A298009420228021FEF779FFA2998D
:10417000C5F834A6C5F83886A5F83C76304607F071
:10418000C9FA2346A39800942022A021FEF768FFD5
:10419000A399C5F868A6C5F86C86A5F87076304670
:1041A00007F0B8FA2346A498009420229021FEF745
:1041B00057FFA499C5F89C96C5F8A086A5F8A476E3
:1041C000304607F0A7FA2346A598009420225946C6
:1041D000FEF746FFA599C5F8D0A6C5F8D486A5F880
:1041E000D876304607F096FA2346A6980094202207
:1041F0002146FEF735FFA699C5F80497C5F808874C
:10420000A5F80C77304607F085FA202223461146A0
:10421000A7980094FEF724FFA799C5F838A7C5F81A
:104220003C87A5F84077304607F074FA2346A898F3
:10423000009420223021FEF713FFA899C5F86C974F
:10424000C5F87087A5F87477304607F063FA2346FF
:10425000A998009420224021FEF702FFA999C5F8F1
:10426000A0A7C5F8A487A5F8A877304607F052FAAA
:104270002346AA98009420225021FEF7F1FEAA9925
:10428000C5F8D497C5F8D887A5F8DC77304607F08D
:1042900041FA2346AB9800943022A021FEF7E0FEBD
:1042A000AB99C5F80898C5F80C88A5F81078304681
:1042B00007F030FA2346AC98009430222146FEF7EE
:1042C000CFFEAC99C5F83CA8C5F84088A5F844785D
:1042D000304607F01FFA2346AD9800943022502153
:1042E000FEF7BEFEAD99C5F870A8C5F87488A5F8AC
:1042F0007878304607F00EFA2346AE9800943022C4
:104300006021FEF7ADFEAE99C5F8A498C5F8A8885F
:10431000A5F8AC78304607F0FDF92346AF98009435
:1043200030227021FEF79CFEAF99C5F8D8A8C5F8D9
:10433000DC88A5F8E078304607F0ECF92346B09821
:10434000009430229021FEF78BFEB099C5F80CA99D
:10435000C5F81089A5F81479304607F0DBF9234633
:10436000B198009430228021FEF77AFEB199C5F809
:104370004099C5F84489A5F84879304607F0CAF94C
:104380002346B298009430225946FEF769FEB2994E
:10439000C5F87499C5F87889A5F87C79304607F096
:1043A000B9F92346B398009430222021FEF758FE35
:1043B000B399C5F8A899C5F8AC89A5F8B079304685
:1043C00007F0A8F9302223461146B4980094FEF76E
:1043D00047FEB499C5F8DCA9C5F8E089A5F8E479E9
:1043E000304607F097F92346B598009430224021D3
:1043F000FEF736FEB599C5F8109AC5F8148AA5F8E7
:10440000187A304607F086F92346B6980094402281
:104410006021FEF725FEB699C5F844AAC5F8488A7A
:10442000A5F84C7A304607F075F92346B798009402
:1044300040227021FEF714FEB799C5F8789AC5F8A6
:104440007C8AA5F8807A304607F064F92346B8984C
:10445000009440228021FEF703FEB899C5F8ACAA6B
:10446000C5F8B08AA5F8B47A304607F053F9234668
:10447000B99800944022A021FEF7F2FDB999C5F841
:10448000E0AAC5F8E48AA5F8E87A304607F042F9D0
:104490002346BA98009440229021FEF7E1FDBA9994
:1044A000C5F8149BC5F8188BA5F81C7B304607F09F
:1044B00031F92346BB98009440225946FEF7D0FDBF
:1044C000BB99C5F848ABC5F84C8BA5F8507B304676
:1044D00007F020F92346BC98009440222146FEF7BD
:1044E000BFFDBC99C5F87C9BC5F8808BA5F8847B83
:1044F000304607F00FF92346BD9800944022202152
:10450000FEF7AEFDBD99C5F8B0ABC5F8B48BA5F804
:10451000B87B304607F0FEF82346BE980094402250
:104520003021FEF79DFDBE99C5F8E49BC5F8E88BE8
:10453000A5F8EC7B304607F0EDF840222346114603
:10454000BF980094FEF78CFDBF99C5F818ACC5F86C
:104550001C8CA5F8207C304607F0DCF82346C09878
:10456000009440225021FEF77BFDC099C5F84C9C79
:10457000C5F8508CA5F8547C304607F0CBF823469C
:10458000C19800945022A021FEF76AFDC199C5F898
:10459000809CC5F8848CA5F8887C304607F0BAF872
:1045A0002346C298009450222146FEF759FDC29935
:1045B000C5F8B4ACC5F8B88CA5F8BC7C304607F09B
:1045C000A9F8502223461146C3980094FEF748FDEF
:1045D000C399C5F8E8ACC5F8EC8CA5F8F07C30467A
:1045E00007F098F82346C498009450226021FEF703
:1045F00037FDC499C5F81C9DC5F8208DA5F8247D0C
:10460000304607F087F82346C59800945022702161
:10461000FEF726FDC599C5F850ADC5F8548DA5F82F
:10462000587D304607F076F82346C698009450220D
:104630009021FEF715FDC699C5F884ADC5F8888DA3
:10464000A5F88C7D304607F065F82346C79800949E
:1046500050228021FEF704FDC799C5F8B89DC5F822
:10466000BC8DA5F8C07D304607F054F82346C898A5
:10467000009450225946FEF7F3FCC899C5F8EC9D0A
:10468000C5F8F08DA5F8F47D304607F043F82346D1
:10469000C998009450222021FEF7E2FCC999C5F880
:1046A000209EC5F8248EA5F8287E304607F032F803
:1046B000CA980094234650223021FEF7D1FCD24BF9
:1046C000CA99C5F8543EC5F8588EA5F85C7E3046A8
:1046D00007F020F82346CB98009450224021FEF7A3
:1046E000BFFCCB99C5F8889EC5F88C8EA5F8907E46
:1046F000304607F00FF860221146CC98009423460C
:10470000FEF7AEFCC04BCC99C5F8BC3EC5F8C08ED8
:10471000A5F8C47E304606F0FDFF2346CD980094F0
:1047200060227021FEF79CFCCD99C5F8F09EC5F87B
:10473000F48EA5F8F87E304606F0ECFFCE98009493
:10474000234660228021FEF78BFCAF4BCE99C5F843
:10475000243FC5F8288FA5F82C7F304606F0DAFFF5
:10476000CF98009423466022A021FEF779FCA64B47
:10477000CF99C5F8583FC5F85C8FA5F8607F3046E3
:1047800006F0C8FF2346D098009460229021FEF7DF
:1047900067FCD099C5F88C9FC5F8908FA5F8947FD9
:1047A000304606F0B7FFD198009423466022594660
:1047B000FEF756FC944BD199C5F8C03FC5F8C48F9D
:1047C000A5F8C87F304606F0A5FF2346D29800948E
:1047D00060222146FEF744FCD299C5F8F49FC5F843
:1047E000F88FA5F8FC7F304606F094FFD39800942C
:1047F000234660222021C246FEF732FC05F5805890
:10480000814BD399A8F83070C8E90A3A304606F0CF
:1048100081FF23460698009460223021FEF720FC99
:10482000C8E9179A0699A8F86470304606F072FF36
:1048300007980094234660224021FEF711FC724B3A
:104840000799A8F89870C8E9243A304606F062FF44
:1048500023460898009460225021FEF701FCC8E925
:10486000319A0899A8F8CC70304606F053FF2346D9
:10487000099800947022A021FEF7F2FBC8E93E9A45
:104880000999A8F80071304606F044FF0A98009490
:10489000234670222146FEF7E3FB5B4B0A99A8F8FA
:1048A0003471C8E94B3A304606F034FF0B98009457
:1048B000234670225021FEF7D3FB534B0B99A8F8E7
:1048C0006871C8E9583A304606F024FF23460C9830
:1048D000009470226021FEF7C3FBC8E9659A0C9929
:1048E000A8F89C71304606F015FF70221146D49846
:1048F00000942346FEF7B4FB434BD499A8F8D0713B
:10490000C8E9723A304606F005FF0D980094234638
:1049100070229021FEF7A4FB3B4B0D99A8F804727E
:10492000C8E97F3A304606F0F5FE23460E9800941B
:1049300070228021FEF794FBC8E98C9A0E99A8F8A2
:104940003872304606F0E6FE23460F980094702237
:104950005946FEF785FBC8E9999A0F99A8F86C7239
:10496000304606F0D7FE234610980094702220218E
:10497000FEF776FBC8E9A69A1099A8F8A07230460F
:1049800006F0C8FE11980094234670223021FEF7ED
:1049900067FB1D4B1199A8F8D472C8E9B33A3046A9
:1049A00006F0B8FE23461298009470224021FEF7CC
:1049B00057FBC8E9C09A1299A8F80873304606F068
:1049C000A9FE13980094234680226021FEF748FB3D
:1049D0000D4B1399A8F83C73C8E9CD3A304606F060
:1049E00099FE2346D598009480227021FEF738FB6B
:1049F000C8E9DA9AD599A8F87073304606F08AFEAD
:104A00008022114602E000BFF7F0DAFF149800940C
:104A10002346FEF725FBD54B1499A8F8A473C8E9E3
:104A2000E73A304606F076FE159800942346802239
:104A3000A021FEF715FBCD4B1599A8F8D873C8E94E
:104A4000F43A304606F066FE23461698009480221B
:104A50009021FEF705FB1699C8F80494C8F808A43D
:104A6000A8F80C74304606F055FE179800942346BB
:104A700080225946FEF7F4FABC4B1799C8F838342F
:104A8000C8F83CA4A8F84074304606F043FE23461C
:104A90001898009480222146FEF7E2FA1899C8F887
:104AA0006C94C8F870A4A8F87474304606F032FE0E
:104AB00019980094234680222021FEF7D1FAAB4BAF
:104AC0001999C8F8A034C8F8A4A4A8F8A874304666
:104AD00006F020FE23461A98009480223021FEF72B
:104AE000BFFA1A99C8F8D494C8F8D8A4A8F8DC7406
:104AF000304606F00FFED6980094234680224021CF
:104B0000FEF7AEFA994BD699C8F80835C8F80CA547
:104B1000A8F81075304606F0FDFD23461B9800945A
:104B200080225021FEF79CFA1B99C8F83C95C8F8E2
:104B300040A5A8F84475304606F0ECFD23461C98C5
:104B400000949022A021FEF78BFA1C99C8F870956A
:104B5000C8F874A5A8F87875304606F0DBFD1D98F6
:104B60000094234690222146FEF77AFA7F4B1D9946
:104B7000C8F8A435C8F8A8A5A8F8AC75304606F062
:104B8000C9FD1E980094234690225021FEF768FA32
:104B9000764B1E99C8F8D835C8F8DCA5A8F8E0759A
:104BA000304606F0B7FD23461F98009490226021FE
:104BB000FEF756FA1F99C8F80C96C8F810A6A8F880
:104BC0001476304606F0A6FD2098009423469022E5
:104BD0007021FEF745FA654B2099C8F84036C8F8B1
:104BE00044A6A8F84876304606F094FD9022114677
:104BF000219800942346FEF733FA5C4B2199C8F8BC
:104C00007436C8F878A6A8F87C76304606F082FD9F
:104C10002346D798009490228021FEF721FAD79955
:104C2000C8F8A896C8F8ACA6A8F8B076304606F042
:104C300071FD23462298009490225946FEF710FAFF
:104C40002299C8F8DC96C8F8E0A6B946A8F8E47638
:104C500030464746DFF818B106F05CFD234623983E
:104C6000009490222021FEF7FBF9C8F810B7239991
:104C7000C7F814A7A7F818973046D04606F04AFDA3
:104C8000DFF8E8A024980094234690223021FEF714
:104C9000E7F92499C7F844A7C7F84887A7F84C97BD
:104CA000304606F037FD2346259800949022402197
:104CB000FEF7D6F92599C7F878B7C7F87C87A7F823
:104CC0008097304606F026FD234626980094A022C1
:104CD0006021FEF7C5F92699C7F8ACA7C7F8B087D9
:104CE000A7F8B497304606F015FD234627980094A0
:104CF000A0227021FEF7B4F92799C7F8E0B7C7F8EA
:104D0000E487A7F8E897304606F004FD2346289884
:104D10000094A0228021FEF7A3F92899C7F814A8CF
:104D2000C7F81888A7F81C98304606F0F3FCA022B4
:104D300023461146D8980094FEF792F9D899C7F8FF
:104D400048A8C7F84C88A7F85098304606F0E2FC0F
:104D5000234629980094A0229021FEF781F92999F1
:104D6000C7F87CB8C7F8808804E000BFF7F0DAFF26
:104D7000CFB359FFA7F88498304606F0CBFC234602
:104D80002A980094A0220021FEF76AF92A99C7F810
:104D9000B0A8C7F8B488A7F8B898304606F0BAFCAF
:104DA00023462B980094A0222146FEF759F92B990F
:104DB000C7F8E4B8C7F8E888A7F8EC98304606F0DA
:104DC000A9FC23462C980094A0222021FEF748F944
:104DD0002C99C7F818A9C7F81C89A7F8209930465C
:104DE00006F098FC23462D980094A0223021FEF76F
:104DF00037F92D99C7F84CB9C7F85089A7F85499D5
:104E0000304606F087FC23462E980094A0224021CD
:104E1000FEF726F92E99C7F880A9C7F88489A7F864
:104E20008899304606F076FC23462F980094A022FD
:104E30005021FEF715F92F99C7F8B4B9C7F8B8890A
:104E4000A7F8BC99304606F065FC2346D998009433
:104E5000B022A021FEF704F9D999C7F8E8B9C7F83C
:104E6000EC89A7F8F099304606F054FC23463098B8
:104E70000094B0222146FEF7F3F83099C7F81CAA37
:104E8000C7F8208AA7F8249A304606F043FC234648
:104E900031980094B0225021FEF7E2F83199C7F81A
:104EA00050AAC7F8548AA7F8589A304606F032FC40
:104EB000234632980094B0226021FEF7D1F832994F
:104EC000C7F884BAC7F8888AA7F88C9A304606F0E3
:104ED00021FC234633980094B0227021FEF7C0F8DD
:104EE0003399C7F8B8AAC7F8BC8AA7F8C09A304661
:104EF00006F010FC234634980094B0229021FEF76F
:104F0000AFF83499C7F8ECAAC7F8F08AA7F8F49A72
:104F1000304606F0FFFB234635980094B0228021EE
:104F2000FEF79EF83599C7F820BBC7F8248BA7F881
:104F3000289B304606F0EEFB234636980094B022BC
:104F40000021FEF78DF83699C7F854BBC7F8588B87
:104F5000A7F85C9B304606F0DDFB2346DA98009408
:104F6000B0222021FEF77CF8DA99C7F888BBC7F891
:104F70008C8BA7F8909B304606F0CCFB23463798E5
:104F80000094B0223021FEF76BF83799C7F8BCAB1C
:104F9000C7F8C08BA7F8C49B304606F0BBFB23467E
:104FA00038980094B0224021FEF75AF83899C7F893
:104FB000F0BBC7F8F48BA7F8F89B304606F0AAFBC5
:104FC000234639980094C0226021FEF749F83999A8
:104FD000C7F824ACC7F8288CA7F82C9C304606F0FC
:104FE00099FB23463A980094C0227021FEF738F8C6
:104FF0003A99C7F858BCC7F85C8CA7F8609C304653
:1050000006F088FB23463B980094C0228021FEF7DF
:1050100027F83B99C7F88CACC7F8908CA7F8949CFC
:10502000304606F077FB23463C980094C022A0212E
:10503000FEF716F83C99C7F8C0ACC7F8C48CA7F8BF
:10504000C89C304606F066FB23463D980094C0227B
:105050009021FEF705F83D99C7F8F4BCC7F8F88C25
:10506000A7F8FC9C304606F055FB2346DB980094DD
:10507000C0220021FDF7F4FFDB99C7F828ADC7F87F
:105080002C8DA7F8309D304606F044FB23463E9811
:105090000094C0222146FDF7E3FF3E99C7F85CBDAE
:1050A000C7F8608DA7F8649D304606F033FB2346B1
:1050B0003F980094C0222021FDF7D2FF3F99C7F806
:1050C00090ADC7F8948DA7F8989D304606F022FB66
:1050D000234640980094C0223021FDF7C1FF40993B
:1050E000C7F8C4BDC7F8C88DA7F8CC9D304606F0F8
:1050F00011FB234641980094C0224021FDF7B0FFE8
:105100004199C7F8F8ADC7F8FC8DA7F8009E304666
:1051100006F000FB234642980094C0225021FDF780
:105120009FFF4299C7F82CBEC7F8308EA7F8349E6F
:10513000304606F0EFFA234643980094D022A0218F
:10514000FDF78EFF4399C7F860BEC7F8648EA7F8D5
:10515000689E304606F0DEFA234644980094D0223A
:105160002146FDF77DFF4499C7F894AEC7F8988EA5
:10517000A7F89C9E304606F0CDFA2346DC980094B2
:10518000D0225021FDF76CFFDC99C7F8C8AEC7F8F4
:10519000CC8EA7F8D09E304606F0BCFA2346459840
:1051A0000094D0226021FDF75BFFA7F8049F45998A
:1051B000C7F8FCBEC7F8008F304606F0ABFA2346AE
:1051C00046980094D0227021FDF74AFFC7F830AF0F
:1051D000C7F8348FA7F8389F4699304606F09AFAF8
:1051E000234647980094D0229021FDF739FFC7F855
:1051F00064AFC7F8688FA7F86C9F4799304606F0F0
:1052000089FA234648980094D0228021FDF728FF90
:10521000C7F898BFC7F89C8FA7F8A09F4899304659
:1052200006F078FA234649980094D0220021FDF731
:1052300017FF07F5805747F834BC47F8308C27F83C
:105240002C9C4999304606F065FA23464A9800940A
:10525000D0222021FDF704FFC7E900B84A99A7F83A
:105260000890304605F5005706F054FA23464B984F
:105270000094D0223021FDF7F3FEC7E90DA84B9929
:10528000A7F83C90304606F045FA2346DD98009496
:10529000D0224021FDF7E4FEC7E91AB8DD99A7F84E
:1052A0007090304606F036FA23464C980094E0227F
:1052B0006021FDF7D5FEC7E927A84C99A7F8A4906F
:1052C000304606F027FA23464D980094E0227021DC
:1052D000FDF7C6FEC7E934B84D99A7F8D890304617
:1052E00006F018FA23464E980094E0228021FDF73C
:1052F000B7FEC7E941A84E99A7F80C91304606F0D1
:1053000009FA23464F980094E022A021FDF7A8FE59
:10531000C7E94EA84F99A7F84091304606F0FAF930
:10532000234650980094E0229021FDF799FEC7E9AA
:105330005BB85099A7F87491304606F0EBF9234614
:1053400051980094E0220021FDF78AFEC7E968A881
:105350005199A7F8A891304606F0DCF923465298F7
:105360000094E0222146FDF77BFEC7E975B852990B
:10537000A7F8DC91304606F0CDF923465398009407
:10538000E0222021FDF76CFEC7E982A85399A7F817
:105390001092304606F0BEF9234654980094E0225D
:1053A0003021FDF75DFEC7E98FB85499A7F8449204
:1053B000304606F0AFF9234655980094E02240218C
:1053C000FDF74EFEC7E99CA85599A7F8789230469C
:1053D00006F0A0F9234656980094E0225021FDF7EC
:1053E0003FFEC7E9A9B85699A7F8AC92304606F037
:1053F00091F9234657980094F022A021FDF730FE42
:10540000C7E9B6B85799A7F8E092304606F082F996
:10541000234658980094F0222146FDF721FEC7E963
:10542000C3A85899A7F81493304606F073F9234699
:1054300059980094F0225021FDF712FEC7E9D0A838
:105440005999A7F84893304606F064F923465A98CC
:105450000094F0226021FDF703FEC7E9DDB85A99F8
:10546000A7F87C93304606F055F92346DE98009461
:10547000F0227021FDF7F4FDC7E9EAA8DE99A7F84C
:10548000B093304606F046F923465B980094F0222C
:105490009021FDF7E5FDC7E9F7A85B99A7F8E4932C
:1054A000304606F037F923465C980094F0228021BC
:1054B000FDF7D6FD5C99C7F810B4C7F81484A7F8B7
:1054C0001894304606F026F923465D980094F022A1
:1054D0000021FDF7C5FD5D99C7F844B4C7F84884BD
:1054E000A7F84C94304606F015F923465E980094D0
:1054F000F0222021FDF7B4FD5E99C7F878B4C7F813
:105500007C84A7F88094304606F004F923465F981F
:105510000094F0223021FDF7A3FD5F99C7F8ACA4F9
:10552000C7F8B084A7F8B494304606F0F3F82346E1
:1055300060980094F0224021FDF792FD6099C7F831
:10554000E0B4C7F8E484A7F8E894304606F0E2F83F
:105550002346619800944FF480726021FDF780FD2E
:105560006199C7F814A5C7F81885A7F81C953046A7
:1055700006F0D0F82346629800944FF480727021B0
:10558000FDF76EFD6299C7F848B5C7F84C85A7F8D6
:105590005095304606F0BEF82346639800944FF4C9
:1055A00080728021FDF75CFD6399C7F87CA5C7F880
:1055B0008085A7F88495304606F0ACF823466498B9
:1055C00000944FF48072A021FDF74AFD6499C7F85A
:1055D000B0A5C7F8B485A7F8B895304606F09AF894
:1055E0002346659800944FF480729021FDF738FDB2
:1055F0006599C7F8E4B5C7F8E885A7F8EC95304693
:1056000006F088F82346669800944FF480720021D3
:10561000FDF726FD6699C7F818A6C7F81C86A7F8F7
:105620002096304606F076F82346679800944FF4AB
:1056300080722146FDF714FD6799C7F84CB6C7F88C
:105640005086A7F85496304606F064F823466898CA
:1056500000944FF480722021FDF702FD6899C7F88D
:1056600080A6C7F88486A7F88896304606F052F8D8
:105670002346699800944FF480723021FDF7F0FCC6
:105680006999C7F8B4B6C7F8B886A7F8BC9630468B
:1056900006F040F82346DF9800944FF480724021D2
:1056A000FDF7DEFCDF99C7F8E8A6C7F8EC86A7F897
:1056B000F096304606F02EF823466A9800944FF490
:1056C00080725021FDF7CCFC6A99C7F81CB7C7F867
:1056D0002087A7F82497304606F01CF823466B98DD
:1056E00000944FF48872A021FDF7BAFC6B99C7F8BB
:1056F00050B7C7F85487A7F85897304606F00AF80D
:1057000023466C9800944FF488722146FDF7A8FC5C
:105710006C99C7F884A7C7F88887A7F88C97304694
:1057200005F0F8FF23466D9800944FF488725021DD
:10573000FDF796FC6D99C7F8B8A7C7F8BC87A7F81E
:10574000C097304605F0E6FF23466E9800944FF46C
:1057500088726021FDF784FC6E99C7F8ECB7C7F832
:10576000F087A7F8F497304605F0D4FF23466F98EA
:1057700000944FF488727021FDF772FC6F99C7F89E
:1057800020A8C7F82488A7F82898304605F0C2FF5B
:105790002346709800944FF490728021FDF760FCCE
:1057A0007099C7F854A8C7F85888A7F85C9830468D
:1057B00005F0B0FF2346719800944FF48872902151
:1057C000FDF74EFC7199C7F888A8C7F88C88A7F830
:1057D00090983046C84605F09DFF4FF07F4923461C
:1057E000729800944FF488728021FDF739FC729909
:1057F000C7F8BCB83046C7F8C098A7F8C48805F009
:1058000089FF2346739800944FF488720021FDF7B6
:1058100027FC7399C7F8F0B83046C7F8F498A7F892
:10582000F88805F077FF2346749800944FF4887247
:105830002021FDF715FC7499C7F824B93046C7F844
:105840002899A7F82C89DA4605F064FFDFF878B3C9
:105850007598009423464FF488723021FDF700FCC0
:105860007599C7F858B93046C7F85C99A7F86089A8
:1058700005F050FF2346769800944FF4887240213B
:10588000FDF7EEFB7699C7F88CA93046C7F89099DA
:10589000A7F8948905F03EFF2346779800944FF4CB
:1058A00090726021FDF7DCFB7799C7F8C0B93046EC
:1058B000C7F8C499A7F8C88905F02CFF2346789843
:1058C00000944FF490727021FDF7CAFB7899C7F8E5
:1058D000F4A93046C7F8F899A7F8FC8905F01AFF33
:1058E0002346E09800944FF49072A021FDF7B8FB96
:1058F000E099C7F828BA3046C7F82C9AA7F8308A3A
:1059000005F008FF2346799800944FF49072902197
:10591000FDF7A6FB7999C7F85CAA3046C7F8609AEC
:10592000A7F8648A05F0F6FE23467A9800944FF4AF
:1059300090720021FDF794FB7A99C7F890BA30462F
:10594000C7F8949AA7F8988A05F0E4FE23467B9856
:1059500000944FF490722146FDF782FB7B99C7F8C3
:10596000C4AA3046C7F8C89AA7F8CC8A05F0D2FE78
:1059700023467C9800944FF490722021FDF770FB31
:105980007C99C7F8F8BA3046C7F8FC9AA7F8008B9C
:1059900005F0C0FE23467D9800944FF490723021AC
:1059A000FDF75EFB7D99C7F82CAB3046C7F8309BFE
:1059B000A7F8348B05F0AEFE23467E9800944FF492
:1059C00090724021FDF74CFB7E99C7F860BB3046D2
:1059D000C7F8649BA7F8688B05F09CFE23467F9868
:1059E00000944FF490725021FDF73AFB7F99C7F86D
:1059F00094AB3046C7F8989BA7F89C8B05F08AFEBD
:105A00002346809800944FF49872A021FDF728FB5C
:105A10008099C7F8C8AB3046C7F8CC9BA7F8D08BA5
:105A200005F078FE2346819800944FF49872214641
:105A3000FDF716FB8199C7F8FCBB3046C7F8009C00
:105A4000A7F8048C05F066FE2346829800944FF474
:105A500098725021FDF704FB8299C7F830BC30469C
:105A6000C7F8349CA7F8388C05F054FE2346839879
:105A700000944FF498726021FDF7F2FA8399C7F809
:105A800064AC3046C7F8689CA7F86C8C05F042FE01
:105A90002346849800944FF498727021FDF7E0FA41
:105AA0008499C7F898BC3046C7F89C9CA7F8A08C8E
:105AB00005F030FE2346859800944FF498729021AB
:105AC000FDF7CEFA8599C7F8CCBC3046C7F8D09C14
:105AD000A7F8D48C05F01EFE2346869800944FF458
